{
  "contractName": "AINFT",
  "abi": [
    {
      "inputs": [],
      "stateMutability": "nonpayable",
      "type": "constructor"
    },
    {
      "anonymous": false,
      "inputs": [
        {
          "indexed": true,
          "internalType": "address",
          "name": "account",
          "type": "address"
        },
        {
          "indexed": true,
          "internalType": "address",
          "name": "operator",
          "type": "address"
        },
        {
          "indexed": false,
          "internalType": "bool",
          "name": "approved",
          "type": "bool"
        }
      ],
      "name": "ApprovalForAll",
      "type": "event"
    },
    {
      "anonymous": false,
      "inputs": [
        {
          "indexed": true,
          "internalType": "address",
          "name": "previousOwner",
          "type": "address"
        },
        {
          "indexed": true,
          "internalType": "address",
          "name": "newOwner",
          "type": "address"
        }
      ],
      "name": "OwnershipTransferred",
      "type": "event"
    },
    {
      "anonymous": false,
      "inputs": [
        {
          "indexed": true,
          "internalType": "address",
          "name": "operator",
          "type": "address"
        },
        {
          "indexed": true,
          "internalType": "address",
          "name": "from",
          "type": "address"
        },
        {
          "indexed": true,
          "internalType": "address",
          "name": "to",
          "type": "address"
        },
        {
          "indexed": false,
          "internalType": "uint256[]",
          "name": "ids",
          "type": "uint256[]"
        },
        {
          "indexed": false,
          "internalType": "uint256[]",
          "name": "values",
          "type": "uint256[]"
        }
      ],
      "name": "TransferBatch",
      "type": "event"
    },
    {
      "anonymous": false,
      "inputs": [
        {
          "indexed": true,
          "internalType": "address",
          "name": "operator",
          "type": "address"
        },
        {
          "indexed": true,
          "internalType": "address",
          "name": "from",
          "type": "address"
        },
        {
          "indexed": true,
          "internalType": "address",
          "name": "to",
          "type": "address"
        },
        {
          "indexed": false,
          "internalType": "uint256",
          "name": "id",
          "type": "uint256"
        },
        {
          "indexed": false,
          "internalType": "uint256",
          "name": "value",
          "type": "uint256"
        }
      ],
      "name": "TransferSingle",
      "type": "event"
    },
    {
      "anonymous": false,
      "inputs": [
        {
          "indexed": false,
          "internalType": "string",
          "name": "value",
          "type": "string"
        },
        {
          "indexed": true,
          "internalType": "uint256",
          "name": "id",
          "type": "uint256"
        }
      ],
      "name": "URI",
      "type": "event"
    },
    {
      "inputs": [],
      "name": "LOGO",
      "outputs": [
        {
          "internalType": "uint256",
          "name": "",
          "type": "uint256"
        }
      ],
      "stateMutability": "view",
      "type": "function",
      "constant": true
    },
    {
      "inputs": [
        {
          "internalType": "address",
          "name": "account",
          "type": "address"
        },
        {
          "internalType": "uint256",
          "name": "id",
          "type": "uint256"
        }
      ],
      "name": "balanceOf",
      "outputs": [
        {
          "internalType": "uint256",
          "name": "",
          "type": "uint256"
        }
      ],
      "stateMutability": "view",
      "type": "function",
      "constant": true
    },
    {
      "inputs": [
        {
          "internalType": "address[]",
          "name": "accounts",
          "type": "address[]"
        },
        {
          "internalType": "uint256[]",
          "name": "ids",
          "type": "uint256[]"
        }
      ],
      "name": "balanceOfBatch",
      "outputs": [
        {
          "internalType": "uint256[]",
          "name": "",
          "type": "uint256[]"
        }
      ],
      "stateMutability": "view",
      "type": "function",
      "constant": true
    },
    {
      "inputs": [
        {
          "internalType": "address",
          "name": "account",
          "type": "address"
        },
        {
          "internalType": "address",
          "name": "operator",
          "type": "address"
        }
      ],
      "name": "isApprovedForAll",
      "outputs": [
        {
          "internalType": "bool",
          "name": "",
          "type": "bool"
        }
      ],
      "stateMutability": "view",
      "type": "function",
      "constant": true
    },
    {
      "inputs": [],
      "name": "owner",
      "outputs": [
        {
          "internalType": "address",
          "name": "",
          "type": "address"
        }
      ],
      "stateMutability": "view",
      "type": "function",
      "constant": true
    },
    {
      "inputs": [],
      "name": "renounceOwnership",
      "outputs": [],
      "stateMutability": "nonpayable",
      "type": "function"
    },
    {
      "inputs": [
        {
          "internalType": "address",
          "name": "from",
          "type": "address"
        },
        {
          "internalType": "address",
          "name": "to",
          "type": "address"
        },
        {
          "internalType": "uint256[]",
          "name": "ids",
          "type": "uint256[]"
        },
        {
          "internalType": "uint256[]",
          "name": "amounts",
          "type": "uint256[]"
        },
        {
          "internalType": "bytes",
          "name": "data",
          "type": "bytes"
        }
      ],
      "name": "safeBatchTransferFrom",
      "outputs": [],
      "stateMutability": "nonpayable",
      "type": "function"
    },
    {
      "inputs": [
        {
          "internalType": "address",
          "name": "from",
          "type": "address"
        },
        {
          "internalType": "address",
          "name": "to",
          "type": "address"
        },
        {
          "internalType": "uint256",
          "name": "id",
          "type": "uint256"
        },
        {
          "internalType": "uint256",
          "name": "amount",
          "type": "uint256"
        },
        {
          "internalType": "bytes",
          "name": "data",
          "type": "bytes"
        }
      ],
      "name": "safeTransferFrom",
      "outputs": [],
      "stateMutability": "nonpayable",
      "type": "function"
    },
    {
      "inputs": [
        {
          "internalType": "address",
          "name": "operator",
          "type": "address"
        },
        {
          "internalType": "bool",
          "name": "approved",
          "type": "bool"
        }
      ],
      "name": "setApprovalForAll",
      "outputs": [],
      "stateMutability": "nonpayable",
      "type": "function"
    },
    {
      "inputs": [
        {
          "internalType": "bytes4",
          "name": "interfaceId",
          "type": "bytes4"
        }
      ],
      "name": "supportsInterface",
      "outputs": [
        {
          "internalType": "bool",
          "name": "",
          "type": "bool"
        }
      ],
      "stateMutability": "view",
      "type": "function",
      "constant": true
    },
    {
      "inputs": [
        {
          "internalType": "address",
          "name": "newOwner",
          "type": "address"
        }
      ],
      "name": "transferOwnership",
      "outputs": [],
      "stateMutability": "nonpayable",
      "type": "function"
    },
    {
      "inputs": [
        {
          "internalType": "uint256",
          "name": "",
          "type": "uint256"
        }
      ],
      "name": "uri",
      "outputs": [
        {
          "internalType": "string",
          "name": "",
          "type": "string"
        }
      ],
      "stateMutability": "view",
      "type": "function",
      "constant": true
    },
    {
      "inputs": [
        {
          "internalType": "address",
          "name": "account",
          "type": "address"
        },
        {
          "internalType": "uint256",
          "name": "id",
          "type": "uint256"
        },
        {
          "internalType": "uint256",
          "name": "amount",
          "type": "uint256"
        }
      ],
      "name": "mint",
      "outputs": [],
      "stateMutability": "nonpayable",
      "type": "function"
    },
    {
      "inputs": [
        {
          "internalType": "string",
          "name": "newURI",
          "type": "string"
        }
      ],
      "name": "setURI",
      "outputs": [],
      "stateMutability": "nonpayable",
      "type": "function"
    }
  ],
  "bytecode": "0x608060405234801562000010575f80fd5b5060405180606001604052806024815260200162003d88602491396200003c816200008760201b60201c565b506200005d620000516200009c60201b60201c565b620000a360201b60201c565b62000081335f6103e860405180602001604052805f8152506200016660201b60201c565b62000ef8565b806002908162000098919062000848565b5050565b5f33905090565b5f60035f9054906101000a900473ffffffffffffffffffffffffffffffffffffffff1690508160035f6101000a81548173ffffffffffffffffffffffffffffffffffffffff021916908373ffffffffffffffffffffffffffffffffffffffff1602179055508173ffffffffffffffffffffffffffffffffffffffff168173ffffffffffffffffffffffffffffffffffffffff167f8be0079c531659141344cd1fd0a4f28419497f9722a3daafe3b4186f6b6457e060405160405180910390a35050565b5f73ffffffffffffffffffffffffffffffffffffffff168473ffffffffffffffffffffffffffffffffffffffff1603620001d7576040517f08c379a0000000000000000000000000000000000000000000000000000000008152600401620001ce90620009b0565b60405180910390fd5b5f620001e86200009c60201b60201c565b90505f620001fc856200034060201b60201c565b90505f62000210856200034060201b60201c565b905062000228835f89858589620003bf60201b60201c565b845f808881526020019081526020015f205f8973ffffffffffffffffffffffffffffffffffffffff1673ffffffffffffffffffffffffffffffffffffffff1681526020019081526020015f205f828254620002849190620009fd565b925050819055508673ffffffffffffffffffffffffffffffffffffffff165f73ffffffffffffffffffffffffffffffffffffffff168473ffffffffffffffffffffffffffffffffffffffff167fc3d58168c5ae7397731d063d5bbf3d657854427343f4c083240f7aacaa2d0f6289896040516200030392919062000a48565b60405180910390a462000321835f89858589620003c760201b60201c565b62000337835f89898989620003cf60201b60201c565b50505050505050565b60605f600167ffffffffffffffff811115620003615762000360620005ee565b5b604051908082528060200260200182016040528015620003905781602001602082028036833780820191505090505b50905082815f81518110620003aa57620003a962000a73565b5b60200260200101818152505080915050919050565b505050505050565b505050505050565b620003f68473ffffffffffffffffffffffffffffffffffffffff16620005c260201b60201c565b15620005ba578373ffffffffffffffffffffffffffffffffffffffff1663f23a6e6187878686866040518663ffffffff1660e01b81526004016200043f95949392919062000b77565b6020604051808303815f875af19250505080156200047d57506040513d601f19601f820116820180604052508101906200047a919062000c40565b60015b6200052e576200048c62000c7c565b806308c379a003620004ef5750620004a362000cd4565b80620004b05750620004f1565b806040517f08c379a0000000000000000000000000000000000000000000000000000000008152600401620004e6919062000dae565b60405180910390fd5b505b6040517f08c379a0000000000000000000000000000000000000000000000000000000008152600401620005259062000e44565b60405180910390fd5b63f23a6e6160e01b7bffffffffffffffffffffffffffffffffffffffffffffffffffffffff1916817bffffffffffffffffffffffffffffffffffffffffffffffffffffffff191614620005b8576040517f08c379a0000000000000000000000000000000000000000000000000000000008152600401620005af9062000ed8565b60405180910390fd5b505b505050505050565b5f808273ffffffffffffffffffffffffffffffffffffffff163b119050919050565b5f81519050919050565b7f4e487b71000000000000000000000000000000000000000000000000000000005f52604160045260245ffd5b7f4e487b71000000000000000000000000000000000000000000000000000000005f52602260045260245ffd5b5f60028204905060018216806200066057607f821691505b6020821081036200067657620006756200061b565b5b50919050565b5f819050815f5260205f209050919050565b5f6020601f8301049050919050565b5f82821b905092915050565b5f60088302620006da7fffffffffffffffffffffffffffffffffffffffffffffffffffffffffffffffff826200069d565b620006e686836200069d565b95508019841693508086168417925050509392505050565b5f819050919050565b5f819050919050565b5f620007306200072a6200072484620006fe565b62000707565b620006fe565b9050919050565b5f819050919050565b6200074b8362000710565b620007636200075a8262000737565b848454620006a9565b825550505050565b5f90565b620007796200076b565b6200078681848462000740565b505050565b5b81811015620007ad57620007a15f826200076f565b6001810190506200078c565b5050565b601f821115620007fc57620007c6816200067c565b620007d1846200068e565b81016020851015620007e1578190505b620007f9620007f0856200068e565b8301826200078b565b50505b505050565b5f82821c905092915050565b5f6200081e5f198460080262000801565b1980831691505092915050565b5f6200083883836200080d565b9150826002028217905092915050565b6200085382620005e4565b67ffffffffffffffff8111156200086f576200086e620005ee565b5b6200087b825462000648565b62000888828285620007b1565b5f60209050601f831160018114620008be575f8415620008a9578287015190505b620008b585826200082b565b86555062000924565b601f198416620008ce866200067c565b5f5b82811015620008f757848901518255600182019150602085019450602081019050620008d0565b8683101562000917578489015162000913601f8916826200080d565b8355505b6001600288020188555050505b505050505050565b5f82825260208201905092915050565b7f455243313135353a206d696e7420746f20746865207a65726f206164647265735f8201527f7300000000000000000000000000000000000000000000000000000000000000602082015250565b5f620009986021836200092c565b9150620009a5826200093c565b604082019050919050565b5f6020820190508181035f830152620009c9816200098a565b9050919050565b7f4e487b71000000000000000000000000000000000000000000000000000000005f52601160045260245ffd5b5f62000a0982620006fe565b915062000a1683620006fe565b925082820190508082111562000a315762000a30620009d0565b5b92915050565b62000a4281620006fe565b82525050565b5f60408201905062000a5d5f83018562000a37565b62000a6c602083018462000a37565b9392505050565b7f4e487b71000000000000000000000000000000000000000000000000000000005f52603260045260245ffd5b5f73ffffffffffffffffffffffffffffffffffffffff82169050919050565b5f62000acb8262000aa0565b9050919050565b62000add8162000abf565b82525050565b5f81519050919050565b5f82825260208201905092915050565b5f5b8381101562000b1c57808201518184015260208101905062000aff565b5f8484015250505050565b5f601f19601f8301169050919050565b5f62000b438262000ae3565b62000b4f818562000aed565b935062000b6181856020860162000afd565b62000b6c8162000b27565b840191505092915050565b5f60a08201905062000b8c5f83018862000ad2565b62000b9b602083018762000ad2565b62000baa604083018662000a37565b62000bb9606083018562000a37565b818103608083015262000bcd818462000b37565b90509695505050505050565b5f604051905090565b5f80fd5b5f7fffffffff0000000000000000000000000000000000000000000000000000000082169050919050565b62000c1c8162000be6565b811462000c27575f80fd5b50565b5f8151905062000c3a8162000c11565b92915050565b5f6020828403121562000c585762000c5762000be2565b5b5f62000c678482850162000c2a565b91505092915050565b5f8160e01c9050919050565b5f60033d111562000c9b5760045f803e62000c985f5162000c70565b90505b90565b62000ca98262000b27565b810181811067ffffffffffffffff8211171562000ccb5762000cca620005ee565b5b80604052505050565b5f60443d1062000d6b5762000ce862000bd9565b60043d036004823e80513d602482011167ffffffffffffffff8211171562000d1257505062000d6b565b808201805167ffffffffffffffff81111562000d32575050505062000d6b565b80602083010160043d03850181111562000d5157505050505062000d6b565b62000d628260200185018662000c9e565b82955050505050505b90565b5f62000d7a82620005e4565b62000d8681856200092c565b935062000d9881856020860162000afd565b62000da38162000b27565b840191505092915050565b5f6020820190508181035f83015262000dc8818462000d6e565b905092915050565b7f455243313135353a207472616e7366657220746f206e6f6e2d455243313135355f8201527f526563656976657220696d706c656d656e746572000000000000000000000000602082015250565b5f62000e2c6034836200092c565b915062000e398262000dd0565b604082019050919050565b5f6020820190508181035f83015262000e5d8162000e1e565b9050919050565b7f455243313135353a204552433131353552656365697665722072656a656374655f8201527f6420746f6b656e73000000000000000000000000000000000000000000000000602082015250565b5f62000ec06028836200092c565b915062000ecd8262000e64565b604082019050919050565b5f6020820190508181035f83015262000ef18162000eb2565b9050919050565b612e828062000f065f395ff3fe608060405234801561000f575f80fd5b50600436106100e7575f3560e01c8063715018a61161008a578063a22cb46511610064578063a22cb46514610245578063e985e9c514610261578063f242432a14610291578063f2fde38b146102ad576100e7565b8063715018a6146101ff5780637fb25bd0146102095780638da5cb5b14610227576100e7565b80630e89341c116100c65780630e89341c14610167578063156e29f6146101975780632eb2c2d6146101b35780634e1273f4146101cf576100e7565b8062fdd58e146100eb57806301ffc9a71461011b57806302fe53051461014b575b5f80fd5b61010560048036038101906101009190611851565b6102c9565b604051610112919061189e565b60405180910390f35b6101356004803603810190610130919061190c565b61038c565b6040516101429190611951565b60405180910390f35b61016560048036038101906101609190611aa6565b61046d565b005b610181600480360381019061017c9190611aed565b610481565b60405161018e9190611b92565b60405180910390f35b6101b160048036038101906101ac9190611bb2565b610513565b005b6101cd60048036038101906101c89190611d64565b61053a565b005b6101e960048036038101906101e49190611eef565b6105db565b6040516101f6919061201c565b60405180910390f35b6102076106f2565b005b610211610705565b60405161021e919061189e565b60405180910390f35b61022f610709565b60405161023c919061204b565b60405180910390f35b61025f600480360381019061025a919061208e565b610731565b005b61027b600480360381019061027691906120cc565b610747565b6040516102889190611951565b60405180910390f35b6102ab60048036038101906102a6919061210a565b6107d5565b005b6102c760048036038101906102c2919061219d565b610876565b005b5f8073ffffffffffffffffffffffffffffffffffffffff168373ffffffffffffffffffffffffffffffffffffffff1603610338576040517f08c379a000000000000000000000000000000000000000000000000000000000815260040161032f90612238565b60405180910390fd5b5f808381526020019081526020015f205f8473ffffffffffffffffffffffffffffffffffffffff1673ffffffffffffffffffffffffffffffffffffffff1681526020019081526020015f2054905092915050565b5f7fd9b67a26000000000000000000000000000000000000000000000000000000007bffffffffffffffffffffffffffffffffffffffffffffffffffffffff1916827bffffffffffffffffffffffffffffffffffffffffffffffffffffffff1916148061045657507f0e89341c000000000000000000000000000000000000000000000000000000007bffffffffffffffffffffffffffffffffffffffffffffffffffffffff1916827bffffffffffffffffffffffffffffffffffffffffffffffffffffffff1916145b806104665750610465826108f8565b5b9050919050565b610475610961565b61047e816109df565b50565b60606002805461049090612283565b80601f01602080910402602001604051908101604052809291908181526020018280546104bc90612283565b80156105075780601f106104de57610100808354040283529160200191610507565b820191905f5260205f20905b8154815290600101906020018083116104ea57829003601f168201915b50505050509050919050565b61051b610961565b61053583838360405180602001604052805f8152506109f2565b505050565b610542610b95565b73ffffffffffffffffffffffffffffffffffffffff168573ffffffffffffffffffffffffffffffffffffffff161480610588575061058785610582610b95565b610747565b5b6105c7576040517f08c379a00000000000000000000000000000000000000000000000000000000081526004016105be90612323565b60405180910390fd5b6105d48585858585610b9c565b5050505050565b60608151835114610621576040517f08c379a0000000000000000000000000000000000000000000000000000000008152600401610618906123b1565b60405180910390fd5b5f835167ffffffffffffffff81111561063d5761063c611982565b5b60405190808252806020026020018201604052801561066b5781602001602082028036833780820191505090505b5090505f5b84518110156106e7576106b785828151811061068f5761068e6123cf565b5b60200260200101518583815181106106aa576106a96123cf565b5b60200260200101516102c9565b8282815181106106ca576106c96123cf565b5b602002602001018181525050806106e090612429565b9050610670565b508091505092915050565b6106fa610961565b6107035f610eaa565b565b5f81565b5f60035f9054906101000a900473ffffffffffffffffffffffffffffffffffffffff16905090565b61074361073c610b95565b8383610f6d565b5050565b5f60015f8473ffffffffffffffffffffffffffffffffffffffff1673ffffffffffffffffffffffffffffffffffffffff1681526020019081526020015f205f8373ffffffffffffffffffffffffffffffffffffffff1673ffffffffffffffffffffffffffffffffffffffff1681526020019081526020015f205f9054906101000a900460ff16905092915050565b6107dd610b95565b73ffffffffffffffffffffffffffffffffffffffff168573ffffffffffffffffffffffffffffffffffffffff16148061082357506108228561081d610b95565b610747565b5b610862576040517f08c379a000000000000000000000000000000000000000000000000000000000815260040161085990612323565b60405180910390fd5b61086f85858585856110d4565b5050505050565b61087e610961565b5f73ffffffffffffffffffffffffffffffffffffffff168173ffffffffffffffffffffffffffffffffffffffff16036108ec576040517f08c379a00000000000000000000000000000000000000000000000000000000081526004016108e3906124e0565b60405180910390fd5b6108f581610eaa565b50565b5f7f01ffc9a7000000000000000000000000000000000000000000000000000000007bffffffffffffffffffffffffffffffffffffffffffffffffffffffff1916827bffffffffffffffffffffffffffffffffffffffffffffffffffffffff1916149050919050565b610969610b95565b73ffffffffffffffffffffffffffffffffffffffff16610987610709565b73ffffffffffffffffffffffffffffffffffffffff16146109dd576040517f08c379a00000000000000000000000000000000000000000000000000000000081526004016109d490612548565b60405180910390fd5b565b80600290816109ee9190612703565b5050565b5f73ffffffffffffffffffffffffffffffffffffffff168473ffffffffffffffffffffffffffffffffffffffff1603610a60576040517f08c379a0000000000000000000000000000000000000000000000000000000008152600401610a5790612842565b60405180910390fd5b5f610a69610b95565b90505f610a758561135d565b90505f610a818561135d565b9050610a91835f898585896113d5565b845f808881526020019081526020015f205f8973ffffffffffffffffffffffffffffffffffffffff1673ffffffffffffffffffffffffffffffffffffffff1681526020019081526020015f205f828254610aeb9190612860565b925050819055508673ffffffffffffffffffffffffffffffffffffffff165f73ffffffffffffffffffffffffffffffffffffffff168473ffffffffffffffffffffffffffffffffffffffff167fc3d58168c5ae7397731d063d5bbf3d657854427343f4c083240f7aacaa2d0f628989604051610b68929190612893565b60405180910390a4610b7e835f898585896113dd565b610b8c835f898989896113e5565b50505050505050565b5f33905090565b8151835114610be0576040517f08c379a0000000000000000000000000000000000000000000000000000000008152600401610bd79061292a565b60405180910390fd5b5f73ffffffffffffffffffffffffffffffffffffffff168473ffffffffffffffffffffffffffffffffffffffff1603610c4e576040517f08c379a0000000000000000000000000000000000000000000000000000000008152600401610c45906129b8565b60405180910390fd5b5f610c57610b95565b9050610c678187878787876113d5565b5f5b8451811015610e07575f858281518110610c8657610c856123cf565b5b602002602001015190505f858381518110610ca457610ca36123cf565b5b602002602001015190505f805f8481526020019081526020015f205f8b73ffffffffffffffffffffffffffffffffffffffff1673ffffffffffffffffffffffffffffffffffffffff1681526020019081526020015f2054905081811015610d40576040517f08c379a0000000000000000000000000000000000000000000000000000000008152600401610d3790612a46565b60405180910390fd5b8181035f808581526020019081526020015f205f8c73ffffffffffffffffffffffffffffffffffffffff1673ffffffffffffffffffffffffffffffffffffffff1681526020019081526020015f2081905550815f808581526020019081526020015f205f8b73ffffffffffffffffffffffffffffffffffffffff1673ffffffffffffffffffffffffffffffffffffffff1681526020019081526020015f205f828254610dec9190612860565b9250508190555050505080610e0090612429565b9050610c69565b508473ffffffffffffffffffffffffffffffffffffffff168673ffffffffffffffffffffffffffffffffffffffff168273ffffffffffffffffffffffffffffffffffffffff167f4a39dc06d4c0dbc64b70af90fd698a233a518aa5d07e595d983b8c0526c8f7fb8787604051610e7e929190612a64565b60405180910390a4610e948187878787876113dd565b610ea28187878787876115bb565b505050505050565b5f60035f9054906101000a900473ffffffffffffffffffffffffffffffffffffffff1690508160035f6101000a81548173ffffffffffffffffffffffffffffffffffffffff021916908373ffffffffffffffffffffffffffffffffffffffff1602179055508173ffffffffffffffffffffffffffffffffffffffff168173ffffffffffffffffffffffffffffffffffffffff167f8be0079c531659141344cd1fd0a4f28419497f9722a3daafe3b4186f6b6457e060405160405180910390a35050565b8173ffffffffffffffffffffffffffffffffffffffff168373ffffffffffffffffffffffffffffffffffffffff1603610fdb576040517f08c379a0000000000000000000000000000000000000000000000000000000008152600401610fd290612b09565b60405180910390fd5b8060015f8573ffffffffffffffffffffffffffffffffffffffff1673ffffffffffffffffffffffffffffffffffffffff1681526020019081526020015f205f8473ffffffffffffffffffffffffffffffffffffffff1673ffffffffffffffffffffffffffffffffffffffff1681526020019081526020015f205f6101000a81548160ff0219169083151502179055508173ffffffffffffffffffffffffffffffffffffffff168373ffffffffffffffffffffffffffffffffffffffff167f17307eab39ab6107e8899845ad3d59bd9653f200f220920489ca2b5937696c31836040516110c79190611951565b60405180910390a3505050565b5f73ffffffffffffffffffffffffffffffffffffffff168473ffffffffffffffffffffffffffffffffffffffff1603611142576040517f08c379a0000000000000000000000000000000000000000000000000000000008152600401611139906129b8565b60405180910390fd5b5f61114b610b95565b90505f6111578561135d565b90505f6111638561135d565b90506111738389898585896113d5565b5f805f8881526020019081526020015f205f8a73ffffffffffffffffffffffffffffffffffffffff1673ffffffffffffffffffffffffffffffffffffffff1681526020019081526020015f2054905085811015611205576040517f08c379a00000000000000000000000000000000000000000000000000000000081526004016111fc90612a46565b60405180910390fd5b8581035f808981526020019081526020015f205f8b73ffffffffffffffffffffffffffffffffffffffff1673ffffffffffffffffffffffffffffffffffffffff1681526020019081526020015f2081905550855f808981526020019081526020015f205f8a73ffffffffffffffffffffffffffffffffffffffff1673ffffffffffffffffffffffffffffffffffffffff1681526020019081526020015f205f8282546112b19190612860565b925050819055508773ffffffffffffffffffffffffffffffffffffffff168973ffffffffffffffffffffffffffffffffffffffff168573ffffffffffffffffffffffffffffffffffffffff167fc3d58168c5ae7397731d063d5bbf3d657854427343f4c083240f7aacaa2d0f628a8a60405161132e929190612893565b60405180910390a4611344848a8a86868a6113dd565b611352848a8a8a8a8a6113e5565b505050505050505050565b60605f600167ffffffffffffffff81111561137b5761137a611982565b5b6040519080825280602002602001820160405280156113a95781602001602082028036833780820191505090505b50905082815f815181106113c0576113bf6123cf565b5b60200260200101818152505080915050919050565b505050505050565b505050505050565b6114048473ffffffffffffffffffffffffffffffffffffffff16611791565b156115b3578373ffffffffffffffffffffffffffffffffffffffff1663f23a6e6187878686866040518663ffffffff1660e01b815260040161144a959493929190612b79565b6020604051808303815f875af192505050801561148557506040513d601f19601f820116820180604052508101906114829190612be5565b60015b61152a57611491612c1c565b806308c379a0036114ed57506114a5612c3b565b806114b057506114ef565b806040517f08c379a00000000000000000000000000000000000000000000000000000000081526004016114e49190611b92565b60405180910390fd5b505b6040517f08c379a000000000000000000000000000000000000000000000000000000000815260040161152190612d3a565b60405180910390fd5b63f23a6e6160e01b7bffffffffffffffffffffffffffffffffffffffffffffffffffffffff1916817bffffffffffffffffffffffffffffffffffffffffffffffffffffffff1916146115b1576040517f08c379a00000000000000000000000000000000000000000000000000000000081526004016115a890612dc8565b60405180910390fd5b505b505050505050565b6115da8473ffffffffffffffffffffffffffffffffffffffff16611791565b15611789578373ffffffffffffffffffffffffffffffffffffffff1663bc197c8187878686866040518663ffffffff1660e01b8152600401611620959493929190612de6565b6020604051808303815f875af192505050801561165b57506040513d601f19601f820116820180604052508101906116589190612be5565b60015b61170057611667612c1c565b806308c379a0036116c3575061167b612c3b565b8061168657506116c5565b806040517f08c379a00000000000000000000000000000000000000000000000000000000081526004016116ba9190611b92565b60405180910390fd5b505b6040517f08c379a00000000000000000000000000000000000000000000000000000000081526004016116f790612d3a565b60405180910390fd5b63bc197c8160e01b7bffffffffffffffffffffffffffffffffffffffffffffffffffffffff1916817bffffffffffffffffffffffffffffffffffffffffffffffffffffffff191614611787576040517f08c379a000000000000000000000000000000000000000000000000000000000815260040161177e90612dc8565b60405180910390fd5b505b505050505050565b5f808273ffffffffffffffffffffffffffffffffffffffff163b119050919050565b5f604051905090565b5f80fd5b5f80fd5b5f73ffffffffffffffffffffffffffffffffffffffff82169050919050565b5f6117ed826117c4565b9050919050565b6117fd816117e3565b8114611807575f80fd5b50565b5f81359050611818816117f4565b92915050565b5f819050919050565b6118308161181e565b811461183a575f80fd5b50565b5f8135905061184b81611827565b92915050565b5f8060408385031215611867576118666117bc565b5b5f6118748582860161180a565b92505060206118858582860161183d565b9150509250929050565b6118988161181e565b82525050565b5f6020820190506118b15f83018461188f565b92915050565b5f7fffffffff0000000000000000000000000000000000000000000000000000000082169050919050565b6118eb816118b7565b81146118f5575f80fd5b50565b5f81359050611906816118e2565b92915050565b5f60208284031215611921576119206117bc565b5b5f61192e848285016118f8565b91505092915050565b5f8115159050919050565b61194b81611937565b82525050565b5f6020820190506119645f830184611942565b92915050565b5f80fd5b5f80fd5b5f601f19601f8301169050919050565b7f4e487b71000000000000000000000000000000000000000000000000000000005f52604160045260245ffd5b6119b882611972565b810181811067ffffffffffffffff821117156119d7576119d6611982565b5b80604052505050565b5f6119e96117b3565b90506119f582826119af565b919050565b5f67ffffffffffffffff821115611a1457611a13611982565b5b611a1d82611972565b9050602081019050919050565b828183375f83830152505050565b5f611a4a611a45846119fa565b6119e0565b905082815260208101848484011115611a6657611a6561196e565b5b611a71848285611a2a565b509392505050565b5f82601f830112611a8d57611a8c61196a565b5b8135611a9d848260208601611a38565b91505092915050565b5f60208284031215611abb57611aba6117bc565b5b5f82013567ffffffffffffffff811115611ad857611ad76117c0565b5b611ae484828501611a79565b91505092915050565b5f60208284031215611b0257611b016117bc565b5b5f611b0f8482850161183d565b91505092915050565b5f81519050919050565b5f82825260208201905092915050565b5f5b83811015611b4f578082015181840152602081019050611b34565b5f8484015250505050565b5f611b6482611b18565b611b6e8185611b22565b9350611b7e818560208601611b32565b611b8781611972565b840191505092915050565b5f6020820190508181035f830152611baa8184611b5a565b905092915050565b5f805f60608486031215611bc957611bc86117bc565b5b5f611bd68682870161180a565b9350506020611be78682870161183d565b9250506040611bf88682870161183d565b9150509250925092565b5f67ffffffffffffffff821115611c1c57611c1b611982565b5b602082029050602081019050919050565b5f80fd5b5f611c43611c3e84611c02565b6119e0565b90508083825260208201905060208402830185811115611c6657611c65611c2d565b5b835b81811015611c8f5780611c7b888261183d565b845260208401935050602081019050611c68565b5050509392505050565b5f82601f830112611cad57611cac61196a565b5b8135611cbd848260208601611c31565b91505092915050565b5f67ffffffffffffffff821115611ce057611cdf611982565b5b611ce982611972565b9050602081019050919050565b5f611d08611d0384611cc6565b6119e0565b905082815260208101848484011115611d2457611d2361196e565b5b611d2f848285611a2a565b509392505050565b5f82601f830112611d4b57611d4a61196a565b5b8135611d5b848260208601611cf6565b91505092915050565b5f805f805f60a08688031215611d7d57611d7c6117bc565b5b5f611d8a8882890161180a565b9550506020611d9b8882890161180a565b945050604086013567ffffffffffffffff811115611dbc57611dbb6117c0565b5b611dc888828901611c99565b935050606086013567ffffffffffffffff811115611de957611de86117c0565b5b611df588828901611c99565b925050608086013567ffffffffffffffff811115611e1657611e156117c0565b5b611e2288828901611d37565b9150509295509295909350565b5f67ffffffffffffffff821115611e4957611e48611982565b5b602082029050602081019050919050565b5f611e6c611e6784611e2f565b6119e0565b90508083825260208201905060208402830185811115611e8f57611e8e611c2d565b5b835b81811015611eb85780611ea4888261180a565b845260208401935050602081019050611e91565b5050509392505050565b5f82601f830112611ed657611ed561196a565b5b8135611ee6848260208601611e5a565b91505092915050565b5f8060408385031215611f0557611f046117bc565b5b5f83013567ffffffffffffffff811115611f2257611f216117c0565b5b611f2e85828601611ec2565b925050602083013567ffffffffffffffff811115611f4f57611f4e6117c0565b5b611f5b85828601611c99565b9150509250929050565b5f81519050919050565b5f82825260208201905092915050565b5f819050602082019050919050565b611f978161181e565b82525050565b5f611fa88383611f8e565b60208301905092915050565b5f602082019050919050565b5f611fca82611f65565b611fd48185611f6f565b9350611fdf83611f7f565b805f5b8381101561200f578151611ff68882611f9d565b975061200183611fb4565b925050600181019050611fe2565b5085935050505092915050565b5f6020820190508181035f8301526120348184611fc0565b905092915050565b612045816117e3565b82525050565b5f60208201905061205e5f83018461203c565b92915050565b61206d81611937565b8114612077575f80fd5b50565b5f8135905061208881612064565b92915050565b5f80604083850312156120a4576120a36117bc565b5b5f6120b18582860161180a565b92505060206120c28582860161207a565b9150509250929050565b5f80604083850312156120e2576120e16117bc565b5b5f6120ef8582860161180a565b92505060206121008582860161180a565b9150509250929050565b5f805f805f60a08688031215612123576121226117bc565b5b5f6121308882890161180a565b95505060206121418882890161180a565b94505060406121528882890161183d565b93505060606121638882890161183d565b925050608086013567ffffffffffffffff811115612184576121836117c0565b5b61219088828901611d37565b9150509295509295909350565b5f602082840312156121b2576121b16117bc565b5b5f6121bf8482850161180a565b91505092915050565b7f455243313135353a2061646472657373207a65726f206973206e6f74206120765f8201527f616c6964206f776e657200000000000000000000000000000000000000000000602082015250565b5f612222602a83611b22565b915061222d826121c8565b604082019050919050565b5f6020820190508181035f83015261224f81612216565b9050919050565b7f4e487b71000000000000000000000000000000000000000000000000000000005f52602260045260245ffd5b5f600282049050600182168061229a57607f821691505b6020821081036122ad576122ac612256565b5b50919050565b7f455243313135353a2063616c6c6572206973206e6f7420746f6b656e206f776e5f8201527f6572206f7220617070726f766564000000000000000000000000000000000000602082015250565b5f61230d602e83611b22565b9150612318826122b3565b604082019050919050565b5f6020820190508181035f83015261233a81612301565b9050919050565b7f455243313135353a206163636f756e747320616e6420696473206c656e6774685f8201527f206d69736d617463680000000000000000000000000000000000000000000000602082015250565b5f61239b602983611b22565b91506123a682612341565b604082019050919050565b5f6020820190508181035f8301526123c88161238f565b9050919050565b7f4e487b71000000000000000000000000000000000000000000000000000000005f52603260045260245ffd5b7f4e487b71000000000000000000000000000000000000000000000000000000005f52601160045260245ffd5b5f6124338261181e565b91507fffffffffffffffffffffffffffffffffffffffffffffffffffffffffffffffff8203612465576124646123fc565b5b600182019050919050565b7f4f776e61626c653a206e6577206f776e657220697320746865207a65726f20615f8201527f6464726573730000000000000000000000000000000000000000000000000000602082015250565b5f6124ca602683611b22565b91506124d582612470565b604082019050919050565b5f6020820190508181035f8301526124f7816124be565b9050919050565b7f4f776e61626c653a2063616c6c6572206973206e6f7420746865206f776e65725f82015250565b5f612532602083611b22565b915061253d826124fe565b602082019050919050565b5f6020820190508181035f83015261255f81612526565b9050919050565b5f819050815f5260205f209050919050565b5f6020601f8301049050919050565b5f82821b905092915050565b5f600883026125c27fffffffffffffffffffffffffffffffffffffffffffffffffffffffffffffffff82612587565b6125cc8683612587565b95508019841693508086168417925050509392505050565b5f819050919050565b5f6126076126026125fd8461181e565b6125e4565b61181e565b9050919050565b5f819050919050565b612620836125ed565b61263461262c8261260e565b848454612593565b825550505050565b5f90565b61264861263c565b612653818484612617565b505050565b5b818110156126765761266b5f82612640565b600181019050612659565b5050565b601f8211156126bb5761268c81612566565b61269584612578565b810160208510156126a4578190505b6126b86126b085612578565b830182612658565b50505b505050565b5f82821c905092915050565b5f6126db5f19846008026126c0565b1980831691505092915050565b5f6126f383836126cc565b9150826002028217905092915050565b61270c82611b18565b67ffffffffffffffff81111561272557612724611982565b5b61272f8254612283565b61273a82828561267a565b5f60209050601f83116001811461276b575f8415612759578287015190505b61276385826126e8565b8655506127ca565b601f19841661277986612566565b5f5b828110156127a05784890151825560018201915060208501945060208101905061277b565b868310156127bd57848901516127b9601f8916826126cc565b8355505b6001600288020188555050505b505050505050565b7f455243313135353a206d696e7420746f20746865207a65726f206164647265735f8201527f7300000000000000000000000000000000000000000000000000000000000000602082015250565b5f61282c602183611b22565b9150612837826127d2565b604082019050919050565b5f6020820190508181035f83015261285981612820565b9050919050565b5f61286a8261181e565b91506128758361181e565b925082820190508082111561288d5761288c6123fc565b5b92915050565b5f6040820190506128a65f83018561188f565b6128b3602083018461188f565b9392505050565b7f455243313135353a2069647320616e6420616d6f756e7473206c656e677468205f8201527f6d69736d61746368000000000000000000000000000000000000000000000000602082015250565b5f612914602883611b22565b915061291f826128ba565b604082019050919050565b5f6020820190508181035f83015261294181612908565b9050919050565b7f455243313135353a207472616e7366657220746f20746865207a65726f2061645f8201527f6472657373000000000000000000000000000000000000000000000000000000602082015250565b5f6129a2602583611b22565b91506129ad82612948565b604082019050919050565b5f6020820190508181035f8301526129cf81612996565b9050919050565b7f455243313135353a20696e73756666696369656e742062616c616e636520666f5f8201527f72207472616e7366657200000000000000000000000000000000000000000000602082015250565b5f612a30602a83611b22565b9150612a3b826129d6565b604082019050919050565b5f6020820190508181035f830152612a5d81612a24565b9050919050565b5f6040820190508181035f830152612a7c8185611fc0565b90508181036020830152612a908184611fc0565b90509392505050565b7f455243313135353a2073657474696e6720617070726f76616c207374617475735f8201527f20666f722073656c660000000000000000000000000000000000000000000000602082015250565b5f612af3602983611b22565b9150612afe82612a99565b604082019050919050565b5f6020820190508181035f830152612b2081612ae7565b9050919050565b5f81519050919050565b5f82825260208201905092915050565b5f612b4b82612b27565b612b558185612b31565b9350612b65818560208601611b32565b612b6e81611972565b840191505092915050565b5f60a082019050612b8c5f83018861203c565b612b99602083018761203c565b612ba6604083018661188f565b612bb3606083018561188f565b8181036080830152612bc58184612b41565b90509695505050505050565b5f81519050612bdf816118e2565b92915050565b5f60208284031215612bfa57612bf96117bc565b5b5f612c0784828501612bd1565b91505092915050565b5f8160e01c9050919050565b5f60033d1115612c385760045f803e612c355f51612c10565b90505b90565b5f60443d10612cc757612c4c6117b3565b60043d036004823e80513d602482011167ffffffffffffffff82111715612c74575050612cc7565b808201805167ffffffffffffffff811115612c925750505050612cc7565b80602083010160043d038501811115612caf575050505050612cc7565b612cbe826020018501866119af565b82955050505050505b90565b7f455243313135353a207472616e7366657220746f206e6f6e2d455243313135355f8201527f526563656976657220696d706c656d656e746572000000000000000000000000602082015250565b5f612d24603483611b22565b9150612d2f82612cca565b604082019050919050565b5f6020820190508181035f830152612d5181612d18565b9050919050565b7f455243313135353a204552433131353552656365697665722072656a656374655f8201527f6420746f6b656e73000000000000000000000000000000000000000000000000602082015250565b5f612db2602883611b22565b9150612dbd82612d58565b604082019050919050565b5f6020820190508181035f830152612ddf81612da6565b9050919050565b5f60a082019050612df95f83018861203c565b612e06602083018761203c565b8181036040830152612e188186611fc0565b90508181036060830152612e2c8185611fc0565b90508181036080830152612e408184612b41565b9050969550505050505056fea2646970667358221220cbef73d012b204da36e04547ab06d7ea13c446da190d2507065f3c717337d5d264736f6c6343000815003368747470733a2f2f616c6566696e766573742e78797a2f6e66742f6c6f676f2f7b69647d",
  "immutableReferences": {},
  "source": "// SPDX-License-Identifier: MIT\npragma solidity ^0.8.19;\n\nimport \"@openzeppelin/contracts/token/ERC1155/ERC1155.sol\";\nimport \"@openzeppelin/contracts/access/Ownable.sol\";\n\ncontract AINFT is ERC1155, Ownable {\n    uint256 public constant LOGO = 0;\n\n    // URI for token metadata\n    constructor() ERC1155(\"https://alefinvest.xyz/nft/logo/{id}\") Ownable() {\n        // Mint 1000 tokens of ID 0 and assign them to the contract owner\n        _mint(msg.sender, LOGO, 1000, \"\");\n    }\n\n    // Function to mint more tokens, restricted to the contract owner\n    function mint(address account, uint256 id, uint256 amount) external onlyOwner {\n        _mint(account, id, amount, \"\");\n    }\n\n    // Function to update the URI, restricted to the contract owner\n    function setURI(string memory newURI) external onlyOwner {\n        _setURI(newURI);\n    }\n}",
  "sourcePath": "/home/oleksiibondareko/Projects/nft/contracts/AINFT.sol",
  "compiler": {
    "name": "solc",
    "version": "0.8.21+commit.d9974bed.Emscripten.clang"
  },
  "schemaVersion": "3.4.16",
  "updatedAt": "2023-12-01T16:47:31.647Z",
  "networkType": "ethereum",
  "devdoc": {
    "events": {
      "ApprovalForAll(address,address,bool)": {
        "details": "Emitted when `account` grants or revokes permission to `operator` to transfer their tokens, according to `approved`."
      },
      "TransferBatch(address,address,address,uint256[],uint256[])": {
        "details": "Equivalent to multiple {TransferSingle} events, where `operator`, `from` and `to` are the same for all transfers."
      },
      "TransferSingle(address,address,address,uint256,uint256)": {
        "details": "Emitted when `value` tokens of token type `id` are transferred from `from` to `to` by `operator`."
      },
      "URI(string,uint256)": {
        "details": "Emitted when the URI for token type `id` changes to `value`, if it is a non-programmatic URI. If an {URI} event was emitted for `id`, the standard https://eips.ethereum.org/EIPS/eip-1155#metadata-extensions[guarantees] that `value` will equal the value returned by {IERC1155MetadataURI-uri}."
      }
    },
    "kind": "dev",
    "methods": {
      "balanceOf(address,uint256)": {
        "details": "See {IERC1155-balanceOf}. Requirements: - `account` cannot be the zero address."
      },
      "balanceOfBatch(address[],uint256[])": {
        "details": "See {IERC1155-balanceOfBatch}. Requirements: - `accounts` and `ids` must have the same length."
      },
      "isApprovedForAll(address,address)": {
        "details": "See {IERC1155-isApprovedForAll}."
      },
      "owner()": {
        "details": "Returns the address of the current owner."
      },
      "renounceOwnership()": {
        "details": "Leaves the contract without owner. It will not be possible to call `onlyOwner` functions. Can only be called by the current owner. NOTE: Renouncing ownership will leave the contract without an owner, thereby disabling any functionality that is only available to the owner."
      },
      "safeBatchTransferFrom(address,address,uint256[],uint256[],bytes)": {
        "details": "See {IERC1155-safeBatchTransferFrom}."
      },
      "safeTransferFrom(address,address,uint256,uint256,bytes)": {
        "details": "See {IERC1155-safeTransferFrom}."
      },
      "setApprovalForAll(address,bool)": {
        "details": "See {IERC1155-setApprovalForAll}."
      },
      "supportsInterface(bytes4)": {
        "details": "See {IERC165-supportsInterface}."
      },
      "transferOwnership(address)": {
        "details": "Transfers ownership of the contract to a new account (`newOwner`). Can only be called by the current owner."
      },
      "uri(uint256)": {
        "details": "See {IERC1155MetadataURI-uri}. This implementation returns the same URI for *all* token types. It relies on the token type ID substitution mechanism https://eips.ethereum.org/EIPS/eip-1155#metadata[defined in the EIP]. Clients calling this function must replace the `\\{id\\}` substring with the actual token type ID."
      }
    },
    "version": 1
  },
  "userdoc": {
    "kind": "user",
    "methods": {},
    "version": 1
  }
}